:1020000000800020ED2C0000B52C0000D52C000035
:1020100000000000000000000000000000000000C0
:10202000000000000000000000000000D52C0000AF
:102030000000000000000000D52C0000412D000031
:10204000D52C0000D52C0000D52C0000D52C00008C
:10205000792C0000D52C0000D52C0000D92C0000D4
:10206000D52C0000FD2900000D2A00001D2A0000CB
:102070002D2A0000D52C0000D52C0000D52C000006
:10208000D52C0000D52C0000D52C0000D52C00004C
:1020900000000000D52C0000D52C0000D52C00003D
:1020A000D52C0000D52C0000D52C0000D52C00002C
:1020B0000000000010B5064C2378002B07D1054B1B
:1020C000002B02D0044800E000BF0123237010BDA4
:1020D0001001002000000000C8500000044B10B5A3
:1020E000002B03D00349044800E000BF10BDC046E8
:1020F0000000000014010020C85000000122014B24
:102100001A707047640100200122014B1A70704759
:10211000650100200122014B1A7070476601002002
:102120000122014B1A707047670100200122014B08
:102130001A7070476801002010B50368C9B21B68A7
:10214000984710BDF8B504000F0016001D00036885
:102150004068D9B200F004FB06216068FFF7ECFF8D
:1021600039006068FFF7E8FF31006068FFF7E4FFBF
:10217000606800F0ABFB23686068D9B200F0F0FA49
:1021800004216068FFF7D8FF00216068FFF7D4FFE3
:1021900029006068FFF7D0FF606800F097FBF8BD8A
:1021A00070B504000E00150003684068D9B200F055
:1021B000D7FA02216068FFF7BFFF31006068FFF7C0
:1021C000BBFF29006068FFF7B7FF606800F07EFB87
:1021D00070BD70B5040003684068D9B200F0C0FA61
:1021E00000216068FFF7A8FF606800F06FFB2368BC
:1021F0006068D9B200F0B4FA23680222D9B26068EC
:1022000000F001FB606803685B69984760680368D9
:102210005B6998470500606800F058FBE8B270BD44
:102220009621F8B55B48890101F0DAFA01212220F4
:1022300000F060FF0121252000F05CFF0121232038
:1022400000F058FF0121242000F054FF002112204B
:1022500000F050FF0021152000F04CFF0021182055
:1022600000F048FF00211B2000F044FF00211E2049
:1022700000F040FF0121222000F06CFF0121252009
:1022800000F068FF0121232000F064FF01212420D9
:1022900000F060FF022212203F4900F02BFC0222D6
:1022A00015203E4900F026FC022218203C4900F08F
:1022B00021FC02221B203B4900F01CFC02223A496F
:1022C0001E2000F017FC394F786800F029FA384ECC
:1022D000706800F025FA374D686800F021FA364C36
:1022E000606800F01DFA354B586800F019FA344B5D
:1022F000586800F015FAFF2338001A000021FFF794
:1023000021FFFF22300011000023FFF71BFFFF23F6
:1023100028001A000021FFF715FFFF2320001A00F4
:102320000021FFF70FFFFF2300211A002348FFF7CA
:1023300009FF002323481A001900FFF703FF0023B9
:102340001F481A001900FFF7FDFE38000022FF2188
:10235000FFF726FFFF2230001100FFF721FF2800C2
:102360000022FF21FFF71CFF20000022FF21FFF7C2
:1023700017FF0022FF211148FFF712FFFF2211482B
:102380001100FFF70DFF00220D481100FFF708FFB5
:10239000F8BDC04624180020FD20000009210000DF
:1023A00015210000212100002D2100002C0100201A
:1023B000340100203C010020440100204C01002099
:1023C0005C0100205401002010B50400C30703D5B0
:1023D0001749184800F05EFFA30703D516491548B2
:1023E00000F058FF630703D51449124800F052FF6C
:1023F000230703D512490F4800F04CFFE30603D52D
:1024000010490C4800F046FFA30603D50E490948C1
:1024100000F040FF630603D50C49064800F03AFF80
:10242000230603D50A49034800F034FF10BDC04617
:10243000A84B000024180020B54B0000C24B000040
:10244000CF4B0000DC4B0000E94B0000F64B0000D6
:10245000034C000010B50400C30703D51749184802
:1024600000F018FFA30703D51649154800F012FF26
:10247000630703D51449124800F00CFF230703D566
:1024800012490F4800F006FFE30603D510490C4837
:1024900000F000FFA30603D50E49094800F0FAFE3C
:1024A000630603D50C49064800F0F4FE230603D565
:1024B0000A49034800F0EEFE10BDC046A44B0000E0
:1024C00024180020B14B0000BE4B0000CB4B000095
:1024D000D84B0000E54B0000F24B0000FF4B000022
:1024E00070B5224C2378002B06D02148FFF771FEEF
:1024F000FFF76AFF002323701E4D1F4C2B78002B23
:1025000006D02000FFF765FEFFF75EFF00232B706B
:102510001A4D2B78002B06D01948FFF75AFEFFF70B
:1025200053FF00232B70174D2B78002B06D0164835
:10253000FFF74FFEFFF748FF00232B70134D2B785A
:10254000002B06D01248FFF744FEFFF783FF00235D
:102550002B702000FFF73DFE0A2201000D4800F01D
:10256000D7FE642000F02AFC70BDC0466401002044
:102570002C010020650100203401002066010020AC
:102580003C01002067010020440100206801002078
:102590004C01002024180020F8B5214F10233800EA
:1025A0001122204900F08EF81F4E13233000142210
:1025B0001E4900F087F8162317221D491D4800F018
:1025C00081F819231A221C491C4800F07BF81C4C86
:1025D0001C231D2220001B4900F074F81A4D1F23F4
:1025E00028002022194900F06DF82022184B84C3DE
:1025F000184B013244C3184B01321A600D4A5A601D
:102600002322164B1A600D4A5A602422144B14C31D
:10261000144B013214C3144B013224C3F8BDC0461D
:102620006C01002074170020A00300207817002000
:102630007C170020D4050020801700200808002007
:102640003C0A002084170020700C0020881700200E
:102650002C010020340100203C0100204401002016
:10266000540100204C0100205C0100200020704734
:10267000F8B505000E0017000024BC4208D02B68F6
:102680002800315D1B689847002801D00134F4E729
:102690002000F8BD70470300FC33196ADA699142E3
:1026A00003D01B6AC018007E704701204042FBE740
:1026B0000300FC33D8691B6AC01A01D50130FF3012
:1026C00070470000F7B50193FA2380270025040026
:1026D0009B008360114B7F0008330E00456029008A
:1026E000009203603A00183002F065F923002000E0
:1026F000FC332130DD613A001D622900FF3002F019
:102700005AF987239B00E3185D609D60009B2000C1
:102710002375019B2661A5756375FEBD0C4C0000F9
:1027200070B5040018260C49006900F095FF206977
:1027300000F04FFE33000821207D084D4343EB1885
:10274000595600F033FD0821607D4643AD196956A6
:1027500000F02CFD70BDC046A0860100304C00008A
:102760008A2300229B00C1540C3BC3185A609A6014
:102770000123837570470200FC32536810B50133A2
:102780009468DBB29C4202D054680155536010BD7E
:10279000F7B5019300230400150018009A422FD0CA
:1027A0002200FC32D36120691362012200F04EFE48
:1027B000002826D02700206900F0CAFE1837010043
:1027C0003800FFF7D8FF01262069B5420ED000F08F
:1027D0001DFE0221206900F023FE206900F0B8FEF2
:1027E00001003800FFF7C7FF0136EDE700F006FEF5
:1027F000019B002B03D00321206900F011FEE8B2F9
:10280000FEBD0500FBE710B50123FFF7C1FF10BDBA
:1028100010B50300827D002082420ED087229200F4
:102820009C186268A4680132D2B2A24205D021335A
:10283000FF331800FFF79FFF012010BD0300FC339A
:1028400099685A68914206D09A68805C9A68013209
:10285000D2B29A60704701204042FBE700228A23EF
:1028600070B59B00827505000E00C15C006900F028
:10287000EDFD002806D10321286900F0D1FD0224D6
:10288000200070BD872328009B00EA1853689468D5
:102890002130FF301C1B01D50134FF34002C0ED039
:1028A0002C69FFF7CBFFC1B2200000F00DFE00281D
:1028B000E8D10321286900F0B3FD0324E0E7002EEE
:1028C000DED00321286900F0ABFDD9E710B5012166
:1028D000FFF7C4FF10BD10B51830FFF7AFFF10BDF4
:1028E00070B50400006900F011FE002814D02069C2
:1028F00000F01AFE002810D0206900F087FD0321A7
:10290000206900F08DFD8C239B00E558002D39D106
:102910000023FC34E361236270BD206900F00EFEE9
:10292000002809D0206900F004FE002804D02069A6
:1029300000F009FE0028DFD0206900F0FFFD00282C
:1029400026D1206900F0EBFD0028E5D0206900F0D9
:10295000FAFD002837D087239B00E218536892685D
:102960009B1A01D50133FF33FF21002B05D0200036
:102970002130FF30FFF762FFC1B2206900F0B7FDE0
:10298000A075C9E7236820001B699847A847BFE7DF
:10299000206900F03BFD2069032100F041FD206922
:1029A00000F0D1FD0028B7D0872300229B00E31858
:1029B0005A609A600123A3758B239B00E3589342CE
:1029C000AAD09847A8E72200FC32D369126A0133E3
:1029D000DBB22069934206D100F010FD032120698B
:1029E00000F01EFD98E700F0B3FD01002000183054
:1029F000FFF7C1FE206900F009FDEFE710B50248BE
:102A0000FFF76EFF10BDC046A40E002010B50248AF
:102A1000FFF766FF10BDC046D810002010B5024871
:102A2000FFF75EFF10BDC0460C13002010B5024832
:102A3000FFF756FF10BDC0464015002010B511230A
:102A400010220B490B48FFF73DFE142313220A49BD
:102A50000A48FFF737FE1723162209490948FFF7EE
:102A600031FE1A23192208490848FFF72BFE10BD32
:102A700074170020A40E002078170020D810002022
:102A80007C1700200C130020801700204015002028
:102A900010B50C490C4800F08DFC0C490C4800F0B6
:102AA00089FC0C490C4800F085FC0C490C4800F0EE
:102AB00081FC0C490C4800F07DFC0C490C4800F0EE
:102AC00079FC10BD0008004274170020000C004281
:102AD00078170020001000427C17002000140042EC
:102AE000801700200018004284170020001C0042BC
:102AF00088170020F7B50092182216264243544B3F
:102B000007009B189E570191731C52D0514B524C99
:102B10001D68002D2BD129004422504801F04BFFA5
:102B2000290044224E4801F046FF10224D4B4E49E9
:102B30001D604E4BCA67BFF34F8FBFF36F8FC0212D
:102B4000C12049005A5080001958FF35A943195037
:102B50001A60474B474A5A80022322781343237056
:102B60006378DB09012BFBD001223A4B1A60012369
:102B70001D00B54062692A436261019A002A18D09B
:102B8000102E1FD1E2781343E370009B042B0BD867
:102B900018000723A2789A4301F036FE030C0E10AA
:102BA000120005231343A3702D4B019A1A64ADB292
:102BB000E560F7BD0423F5E70323F3E70223F1E71C
:102BC0000123EFE738000027002100F0EFFA254B42
:102BD00022499C461B68BA00BB421DD160460133A6
:102BE00003601F4B8D5001999950072E19DD32005B
:102BF0000123083A92000720904017499B005B1878
:102C000099698143996100990429D0D8080001F09D
:102C1000FBFD0B1215181B008858A842E1D00137A4
:102C2000D9E70023B200E6E70521986991400A0040
:102C300002439A61BBE704219869F7E70321986989
:102C4000F4E702219869F1E701219869EEE7C046AF
:102C5000304C00001418002000180040D01700204D
:102C60008C1700201818002004E100E000E100E0CB
:102C7000000C00400540000070B50024094D0A4BCF
:102C80001B68A34200D870BD084E2A6833691A42F7
:102C900005D0074BA200D35898472B683361013405
:102CA0000435ECE7D0170020181800200018004069
:102CB0008C170020054B10B51B6C002B00D09847DB
:102CC0000123034AD1780B43D37010BD8C17002029
:102CD00000180040FEE70000034B10B51B68002BF6
:102CE00000D0984710BDC0461C1800200F4A10485D
:102CF000110010B50F4B824202D0934209D113004C
:102D0000824209D100F07EF801F0C6FCFEE710CB4C
:102D100010C18142FBD3F3E7074A8B42F2D0002176
:102D2000064B9A42EED202C2FBE7C04600000020EA
:102D300010010020CC50000010010020241E0020B3
:102D400010B500F05CF8002801D100F04DF810BD7E
:102D5000014B18607047C0461C180020F7B5134897
:102D6000012284461249134C8E68636805689B0EE5
:102D70001340019288686268019F920E3A4067464C
:102D80003F6893420ED1BD420CD186420AD35B19F3
:102D9000FA254868AD00861B07486B437043000D59
:102DA000C018FEBD3D0013000600E3E72018002018
:102DB00010E000E000ED00E05555000070B5041E85
:102DC00011D0FFF7CBFFFA260500B60000F016F889
:102DD000FFF7C4FF401BB042F8D3FA23013C9B002D
:102DE000ED18002CF4D170BD10B5034A13680133FF
:102DF000136000F0A5FA10BD2018002070470020D5
:102E0000704700001E22F0B5504851494368514DAB
:102E100093431A0002231343436008238A69134330
:102E2000FE228B612B68D2039B0213404A4A134354
:102E30004A4A936113000422DC681442FCD0012446
:102E4000474A14701678264203D0567876B2002E80
:102E5000F8DB01249460547864B2002CFBDB414C15
:102E60005460547864B2002CFBDB8224E40154806B
:102E7000547864B2002CFBDB02249C840E34DE68A0
:102E80002642FCD0384CDC621024DE682642FCD09E
:102E90002C68A40E3F2C00D1203C9E6A334FA40224
:102EA0003E4034439C629C6A314EA40AA4023443DF
:102EB0009C62304CDC6200249C841034DE68264224
:102EC000FCD02D4C9C841024DE682642FCD00224C9
:102ED0009E8C34439C841024DE682642FCD000245F
:102EE0009460547864B2002CFBDB244C546054781A
:102EF00064B2002CFBDB1C6A214E344080261C622D
:102F00001C6AB4431C62032393601E4B53605378C6
:102F10005BB2002BFBDB0023FF240B721A4A4B72BF
:102F20008B72CB72194B1A60194A2B6811689A067A
:102F30005B01C90E2340520F12020B431343154A83
:102F400013858023426813434360F0BD0040004175
:102F500000040040246080000606000000080040D5
:102F6000000C004001040100B905FF7DFF03FFFFD5
:102F7000FF01000080BB0A1C2405000000070300BD
:102F8000FFFCFFFF03060100006CDC0200000020D4
:102F90002060800000400042FA212E4B10B51868D6
:102FA000890001F03BFC802301385B0498424FD23A
:102FB00029492A4A4860C020136A00061B021B0ADE
:102FC0000343136200238B6007330B608021136A75
:102FD00009061B021B0A0B431362FC22204B196AD1
:102FE0000A431A62FF22196A12020A431A62A022D5
:102FF000196AD2020A431A621A4B1C005A7852B25A
:10300000002AFBDB184A5A80184B1A00597EC9095E
:103010000129FBD0C821890099800521D970537EF0
:10302000DB09012BFBD0C02300205B0113619070F2
:1030300000F022F863785BB2002BFBDB0C4B0D4AEF
:103040006380D379DB09012BFBD04123537010BD82
:10305000FEE7C0460000002010E000E000ED00E0C8
:1030600000040040000C00401E40000000400042F0
:1030700021400000004800421C4900B50B004A7E78
:10308000D209012AFBD001380A2829D801F0BCFB5B
:103090001B28282828280628282411001A691449E2
:1030A0000A400F211A615A788A43110001220A430B
:1030B00010E01A690E490A400F211A615A788A43B2
:1030C00011000322F3E71A6909490A400F211A6126
:1030D0005A788A435A7000BD1A6905490A401A6134
:1030E0000F215A788A4311000222E0E70040004293
:1030F000FFFFFFF0182310B508245843134A131894
:103100001C57013412D001245B6882569C4003296D
:103110000CD808000E49D2015218D318403301F0E0
:1031200073FB0210060B02211970546010BD0621BA
:10313000197054609461F9E7062119705460546164
:10314000F4E7022119709460F0E7C046304C0000AB
:10315000004400411823F0B508245843114A1318BD
:103160001C5701341BD0012635005F688356BD40D3
:103170000D4ADB019A18906805420BD10C00601EC5
:103180008441D2194032107834400336A400B04351
:1031900020431070044A9B18002901D15D61F0BDE5
:1031A0009D61FCE7304C000000440041182370B5DD
:1031B000082643432A4AD518AE573400013607D0B3
:1031C000072907DC00291DDA01314C424C416442D9
:1031D000200070BD0B00083BDBB20024032BF7D8A6
:1031E000092903D12100FFF785FFF1E70A2904D15E
:1031F0000839FFF77FFF0024EAE700240B29E7D115
:103200000A39F0E76C68012520009B56C9B26208B4
:103210002840DB012C4211D012480E351B189A1899
:1032200030321078090128400143C9B2117041229F
:103230001B19403319780A431A70DCE70F26094D31
:103240005B199A18303215781B19B5432943117050
:1032500041224033197804000A431A70B8E7C04687
:10326000304C00000044004170B505000C00081E01
:1032700007D001F063FC2B680200210028005B6886
:10328000984770BD10B50249FFF7EEFF10BDC0466C
:103290002050000070B50400FFF7E6FF0500200095
:1032A000FFF7F0FF401970BDF0B58BB06B4614000E
:1032B0000022053307000D00DA77012C00D80A241C
:1032C00009AE2800210001F02FFB0300CAB208005C
:1032D00029001D0013003733DBB2092802D8130080
:1032E0003033DBB2013E33708C42EAD93100380012
:1032F000FFF7BAFF0BB0F0BD10B5002A04D1036888
:10330000C9B21B68984710BDD2B2FFF7CDFFFAE7EC
:1033100070B50400FFF7F0FF05002000FFF7B2FFD3
:10332000401970BD014B18607047C0460400002072
:103330000122024B52421A607047C046040000202E
:10334000164A10B51368591C27D0013B1360002B97
:1033500023D172B68122124B92000433934213D3CD
:10336000104A01211000147D0C42FCD02021148B46
:10337000FF319B085B0021431183D3610A4B13800B
:103380000123027D1A42FCD0BFF34F8F074B084A3E
:10339000DA60BFF34F8FC046FDE710BD0400002088
:1033A000002000000040004102A5FFFF00ED00E00A
:1033B0000400FA05016070470123026811680B439D
:1033C000136003681A68D207FCD4DA69D207F9D40B
:1033D00070470223026811680B4313600368DA69BF
:1033E0009207FCD430215A8B8A43110010220A43E1
:1033F0005A830268D3695B07FCD470478023026854
:10340000DB02116851680B4353607047036803493E
:103410001A685A680A405A607047C046FFFFFBFFAF
:10342000032230B5036811401C68074D5A6809042F
:103430002A40E4061143640F5960052C03D1026849
:10344000D3695B07FCD430BDFFFFFCFF30B50368D8
:103450000400588B8006800F022813D05D8B00205B
:10346000AD06AD0F032D2ED0588B800705D55D8B93
:103470000020AD06AD0F012D25D15D8BAD06AD0F42
:10348000281E20D04800596A1043C90AC0B2C90298
:10349000014359622368002A08D11A7ED207FCD55D
:1034A000588B01234007C00F58400CE01A7E92074A
:1034B000D00F002AF4DB1A7ED207F7D5C022596854
:1034C00092020A435A6030BD0368283319700268BB
:1034D000137EDB07D80F002B03D1538BDB07F7D507
:1034E00070470123508B4007C00F5840F8E703682E
:1034F000283319700268137E5B07D80F002B04DA9B
:103500000123508B4007C00F58407047036818686C
:10351000C006400F043843425841C0B270470368A8
:10352000187E4007C00F70470368187EC007C00FA1
:1035300070470368588BC006C00F70470368187E39
:103540008007C00F70470368588B0007C00F704793
:1035500003681A68D206520F052A02D11A7E920712
:10356000FCD528331878C0B2704700000368104AB1
:10357000934213D00F4A934212D00F4A934211D074
:103580000E4A934210D00E4A93420FD001200D4AAA
:103590004042934201D1063040B270470020FBE721
:1035A0000120F9E70220F7E70320F5E70420F3E71D
:1035B00000080042000C00420010004200140042CB
:1035C00000180042001C0042F8B5FFF7CFFF0028AA
:1035D0002CDB1D4BC000181805230479C3560320AB
:1035E000FF221840C0008240C021D2438140002BFE
:1035F0001DDB1F2501201D40C026A840134D76006D
:10360000A851C0269B089B005B19B6009F593A4001
:103610001143995128603F2323408024E4011C4337
:103620000B4B5C805A7852B2002AFBDBF8BD0F20AE
:103630000340083B07489B089B001B18D8690240C1
:103640001143D961E7E7C0462450000000E100E0E3
:10365000000C004000ED00E0F8B504000F00FFF79B
:10366000B3FF2000FFF7A8FE1422236879001A6038
:103670000C4B25681E68300001F0D0F80A490400A0
:10368000300001F0CBF87D23FA215843C90001F046
:10369000C5F8FF23241AE868053C1C4098430443FE
:1036A000EC60F8BD0000002040420F003F20704752
:1036B00013B56B460268D9710733546819000122AB
:1036C000A04716BD10B50221006900F011FC10BD25
:1036D00010B50321006900F021FC10BD10B51300E6
:1036E000084A0400D279002A03D101230020636034
:1036F00010BD0A000069032100F0FCFC0028F4D092
:10370000F6E7C0460C00002010B5054C0300206809
:10371000421C04D11A68180052699047206010BDFD
:1037200058000020074A0300106810B5411C03D060
:1037300001235B42136010BD0221186900F0CCFC2C
:10374000F9E7C0465800002010B503784222023342
:1037500003700249024800F06DFD10BD1400002006
:103760004018002010B50178030042780020A129FC
:1037700008D1212A05D1174917481A3A00F05AFDF5
:10378000012010BD2129FCD1202A13D11149124852
:10379000193A00F007FC96220E4BD20019689142AC
:1037A0000ED1DA7901231A420AD1FA20FFF7BAFDC5
:1037B0000020E6E7222A06D19A78064BDA71EAE77A
:1037C000FFF7B6FDF4E7232ADBD15A88034B1A60D2
:1037D000D7E7C0460C000020401800200800002059
:1037E00070470000FA220021054B92009A60054ABA
:1037F00008321A60044A59601A6119767047C04647
:10380000241800205450000040180020704770B564
:103810000F26CB1D02003240D5B22C0000093034F7
:10382000092A00DD07341C705A1E994200D170BD70
:103830001300EFE710B50400806901F0A9F8A06A51
:1038400001F0A6F8200010BD10B50400FFF7F2FF4C
:10385000200000F047FF200010BD000070B50329D4
:1038600008D1324B8000C058002802D00368DB68C2
:10387000984770BD82291FD1C3B22D4D5A01AA1895
:1038800091692C4C80010C40C02189052143916134
:10389000294908334018802150612A685B01D018FB
:1038A00004794942214301717020995C81430800E9
:1038B000302101439954DCE70029DAD1C024C1B298
:1038C0001B4E4A01B21893681A4DA4052B4023439E
:1038D00093601A4B8001C0180B00506030680726B7
:1038E00008335B01195CB1430E00012131431954C7
:1038F00091690D402C43946170240F495161195C0A
:10390000A1430C0010212143195491680C4CC31899
:103910000C4080214903214391609168890B890300
:103920009160402259790A435A71A2E74418002055
:10393000F81C0020FFFFFF8F6C1800202C1A0020BD
:10394000FF3F00F0EFF3108303600123436072B682
:1039500070470368002B02D162B6BFF36F8F7047C8
:1039600037B5056904006846002D14D1FFF7EAFF5A
:10397000019B621D013B02D3D57FEDB2FAE7684699
:103980000193FFF7E6FF002D01D100203EBD206A24
:10399000E369C01AFAE7FFF7D5FF22000025019B73
:1039A0003432013B02D31578EDB2FAE76846019351
:1039B000FFF7CFFF002DE8D0206BE36AE9E70000B6
:1039C000F0B5FF2501264268836811682B405B0132
:1039D000CC186419A77AD3183E43A672C6689C68AF
:1039E0000B4FB60436093C4034439C6083682B403F
:1039F0005B01D2189468A40BA403946040228368EE
:103A00002B4008335B01CB1819790A431A71F0BDBA
:103A1000FF3F00F0F7B5056904000E001700684687
:103A2000002D43D1FFF78EFF019B601D013B5A1C07
:103A30000BD0C27F591E002A05D168460193FFF7BB
:103A400088FF2800FEBD0B00F1E768460193FFF7F1
:103A500080FFE369AF420AD0226A9A4207D95A1C12
:103A6000E261A269D3181B7873550135F1E7226A28
:103A70009A42E6D10023E361013368462361FFF7F0
:103A800061FF22000021019B671D013B3532581C5C
:103A9000D3D0F97710785E1E002805D02000117071
:103AA0000193FFF78DFFECE73300F0E7FFF74AFFE4
:103AB0002000019B3430013B5A1C06D00278591E6D
:103AC000D5B2002AB9D00B00F6E76846019300256D
:103AD000FFF73FFFE36ABD4202D0226B9A421CD837
:103AE000226B9A42ADD100236846E3622361FFF75F
:103AF00029FF270022000021019B3437013B35328A
:103B0000581C9AD0397010785E1E00280DD0200005
:103B100011700193FFF754FFEBE75A1CE262A26AAF
:103B2000D3181B7873550135D4E73300E8E7F7B5B0
:103B300082684368D2B21100040008311868490154
:103B40004118C879C00729D501255201CD719B18AC
:103B50009A6861699204920C002923D12262226A38
:103B6000002A41D0A26A656168465A60FFF7EAFE02
:103B7000342294462200019B671D013BA444353248
:103B8000591C2DD06146FD770978581ECEB2002908
:103B900005D0019368461570FFF7DBFEF7BD030003
:103BA0001670EDE72263226B002A1DD00022270049
:103BB0006261A26968465A60FFF7C4FE019B621DFC
:103BC0009446013B34373032591C09D061463D7070
:103BD000C97F581ECEB20029DBD103001670F3E76F
:103BE00068460193FFF7B5FE2000FFF7E9FED5E731
:103BF00013B56A4600230C00D01DD371FFF7A4FD56
:103C000023681818206000F0A5FD6B46D91D00F050
:103C10006DFD236818186B462060D87916BD00002A
:103C200003290ED180220E4B62311B68FF31585C94
:103C3000524202435A5468226339FF32FF39995481
:103C400070470129FCD18022054B24311B68FF31CC
:103C5000585C524202435A5428222339FF32EDE77E
:103C6000F81C00202023264A70B5D16904000B43BC
:103C7000D36101220F2023490B7813430B70224B91
:103C800019788143197006211D78294319701F493D
:103C90000D782A430A701A7802401A706022197847
:103CA0000A431A701A4B1B4A5A805A78D209FCD11F
:103CB0001948FFF74DF8194D280000F05FFD280066
:103CC00000F072FD7F212B68C1201A7880000A4025
:103CD0001A70042219780A430C211A701A898A432F
:103CE0000F491A810A581202120A0A5080220A60E9
:103CF00019787E3A0A431A700123237070BDC046BA
:103D000000040040584400413C44004159440041F3
:103D1000000C00400640000075460000F81C002022
:103D200000E100E00078002810D00121084B1B685A
:103D30001A898A431A810822198B0A431A8304229A
:103D4000198B0A431A830022024B1A607047C0463F
:103D5000F81C0020F01C00200A000E498B699B0B08
:103D60009B038B610B680221FF33197298798239AA
:103D700001439971197A8907FCD57F20064B0240CF
:103D8000997A8143114380229972997A52420A4367
:103D90009A727047F81C00200050004110B50B7952
:103DA0000C00002B0CD10800FFF7DCFC002801D030
:103DB000012010BD094A93699B0B9B039361F7E7B0
:103DC00000F0C8FC210000F0B5FC0028F0D1034A47
:103DD00093699B0B9B039361EBE7C046F81C0020A3
:103DE000F7B50D001100832A19D1EBB2324C5A01FC
:103DF000A21891693148AD010840C02189050143ED
:103E000091612F4920686D187021083355615B015D
:103E10001A5C8A43110040220A431A54F7BD022A51
:103E200045D1284AAB009858002802D003685B6946
:103E30009847382000F052FC234B80270360002372
:103E40001D4E7F00421D036203614361C3614660F2
:103E50008560C760D3772F32C36203630400137099
:103E60003800537000F08AFD0190A061380000F026
:103E700085FDEBB25A01A062B21891680F48083371
:103E80000840C021890501439160316807265B0124
:103E9000585CAD00B0430600032030435854019BEA
:103EA00020005360FFF78CFD064B5C51B6E72800FD
:103EB000FFF7D4FCB2E7C046F81C0020FFFFFF8FDD
:103EC0006C180020441800208050000070B50500D8
:103ED0000124064BA200D258002A05D02100280058
:103EE000FFF77EFF0134F4E770BDC0465C000020A0
:103EF000084B8A00D05810B5002803D003689B688F
:103F0000984710BD044BC9B249015918886880040C
:103F1000800CF6E744180020F81C002010B50C00B7
:103F2000FFF7E6FF00280CD0064BE4B219688023A7
:103F3000083464010C1962795B42134363710223F4
:103F4000E37110BDF81C002070B5CBB2124A1348C3
:103F50005C0189018918021951609168104D08337C
:103F60000D40802189022943402591609168890B89
:103F70008903916001685A018A18167935431571D1
:103F800095796D06FCD55B01C918CB79DB07FCD5AB
:103F900000198068C0B270BD2C1A0020F81C0020E7
:103FA000FF3F00F070B5140040220B4B0D001B6862
:103FB000FF3359790A435A710021FFF7C5FFA04228
:103FC00000D9200000230549A34203D0CA5CEA546B
:103FD0000133F9E770BDC046F81C00202C1A002000
:103FE00010B50C48C9B24901421893689B049B0C58
:103FF0003F2B0BD99468403B9B04A40B9B0CA40360
:104000002343936041188868C0B210BD93689B0B2E
:104010009B03F6E7F81C0020F0B51C002A4B85B086
:104020001B6806000D000192002B49D0274B8A0027
:10403000D058002808D0036822005B68019998478F
:104040000400200005B0F0BD3000FFF751FF8442AE
:1040500004D929003000FFF74BFF0400290030008D
:10406000FFF7BEFF0121EBB2194F03935B010293EF
:10407000029A3B6801989B18FF335A7A0A435A7296
:10408000144BA9012200C91800F08CFC002CD8D0D8
:1040900029003000FFF72CFF0028D2D14021039BDC
:1040A0003A6808335B01D31818790143197101216B
:1040B000D971029BD318FF339A7A0A439A72C0E7E8
:1040C00001246442BDE7C046F01C002044180020D3
:1040D000F81C00202C1A002013B56B46DC1D2200B2
:1040E0000123FFF799FF012801D1207816BD012097
:1040F0004042FBE7F0B51C00354B85B01B680E0055
:104100000192002B35D08023DB019C4231D800275F
:10411000304B8A01D3180293002C2CD02E4B1B68F5
:104120000393FF2333401D0000930835039B6D016B
:104130005D19AB79DB0921D0284B2949186800F0BB
:104140006DFB284B1721584300F068FB264BEA799A
:10415000920713D49A5D002A01D10138F7D20122C7
:104160009A55009B5A011C4B9B189A69920B92031B
:104170009A6101277F42380005B0F0BD00221A4B3A
:1041800025009A55402C00D940252A000199029813
:1041900000F008FC009BA9045A010F4B890C9B18E6
:1041A000029A7F195A619A69641B920B92030A431F
:1041B0009A61009B039A08335B01D3180222DA71DB
:1041C0005979823A0A435A71019B5B190193A3E71B
:1041D000F01C00206C180020F81C002000000020BB
:1041E00040420F00701101006118002070B50C00F2
:1041F0001D000D4BA601F618110030002A0000F03A
:10420000D1FBE4B2094A640114196661A369084943
:1042100028000B40A361A169AB04890B9B0C8903A7
:104220001943A16170BDC0466C180020F81C002025
:10423000FF3F00F0F7B5104B0F001B781400019002
:10424000002B0CD10D4B16001D78002D09D00C4E03
:104250000C48358828182D1900F0A4FB3580200063
:10426000FEBD002EFBD033007A1900210198FFF724
:10427000BDFF2D18361AF4E7EC1B0020ED1C0020C2
:10428000EE1C0020ED1B0020F8B500200D001400EE
:1042900000AF012A27D9D31D6A46DB08DB00D31AF9
:1042A0009D46080000F04AFC6E46032302220021CE
:1042B0000130400030707370A2420DD2287800287F
:1042C0000AD0531CDBB20135B0549C4203D00232F9
:1042D000F154D2B2F0E7220031000448FFF7AAFF00
:1042E000431E9841C0B2BD46F8BDC04640180020EC
:1042F000F0B50025012785B0184B0E0069461F70E8
:1043000004000095FFF774FC154B01A90B806A3B74
:10431000FF3BCB716E3B0B72009B320009334B802D
:104320000E4B8D714F7108711D70092E0FD00D4EFF
:10433000092237700C4F200000953D80FFF77AFF6F
:1043400069462000FFF754FC3A8808493570200080
:10435000FFF770FF012005B0F0BDC046EC1B002048
:1043600009020000ED1C0020EE1C0020ED1B0020C7
:10437000F0B5CF7805000E0093B0022F09D1C9889F
:104380002B48FFF7B5FF441EA041C4B2200013B074
:10439000F0BD00F0DFF9310000F0BCF9002803D0D7
:1043A000C417241AE40FF1E7012F0BD1F288214939
:1043B000112A11D8D2B2002A0ED02800FFF73AFFF6
:1043C0000124E3E70400032FE0D1B378002B05D1EB
:1043D000F2881949032AEDD90A78EEE7022B06D1B3
:1043E000B27916492800FFF74FFF0400CEE7012BF2
:1043F00002D1B2791249F5E7032BC7D1114B01A9BC
:104400001868FFF704FA104B03A91868FFF7FFF9C3
:104410000E4B05A91868FFF7FAF90D4B07A91868A4
:10442000FFF7F5F96B460533DC77B27901A9D9E7D7
:1044300040180020B6500000A05000009850000026
:10444000A45000000CA0800040A0800044A0800088
:1044500048A0800037B5050048780C000B2810D81C
:1044600000F0D2F9061B0F310F484D7551546E7193
:10447000097801AA002906D1022311802800FFF73C
:10448000B5FE01203EBD00231380324B1B78012B6B
:1044900000D1137002230021F0E78A780023012A5B
:1044A00009D16A4693802C4B1B78012B00D11371E4
:1044B000022301AAEFE7274A1370284A93699B0B4E
:1044C0009B039361DDE78C78012C07D1224B01AA75
:1044D0001C70234B1B7813702300DCE70020844200
:1044E000D0D11C4B01301D4A187093699B0B9B0364
:1044F0009361C7E728008978FFF72EFCC1E7280001
:10450000FFF736FFBEE70123164AC4E70B78002009
:10451000DB06B7D12800FFF7D9FC2A200221A278B8
:10452000104BFF301A600D4A13681C5C21434A246B
:104530001954FF34195D2938FF3801431955D4E760
:104540000123094AA7E78A78074B1A60B5E70020DC
:1045500098E7C0466018002068180020F81C00206A
:1045600022500000F01C0020F41C00203B4BF7B54B
:104570001C780700002C64D1394E33689B8B1B07D5
:104580000ED521002000FFF769F9326810231100D1
:10459000FF31887A03438B72324B1C60082393836C
:1045A00033689A8B520701D504229A83FF331A7A13
:1045B000D2061ED510221A72597930320A435A7126
:1045C0006023294938000A781A423BD1FFF742FF9D
:1045D0003368FF33002838D08022997952420A4349
:1045E0009A711A7A520604D540221A72597A0A43ED
:1045F0005A72336800241D8C01239D43EDB2019350
:10460000E1B2002D1DD02B002341019A134215D099
:104610002300326808335B01D318DA79D20702D459
:10462000DB799B0707D5114BA200D058002810D08A
:1046300003681B689847019BA3409D430134092CE4
:10464000DED1F7BDFFF7AAFBC2E72021084A91712E
:10465000C7E73800FFF7E4FAEDE7C046ED1C00209D
:10466000F81C0020F01C00202C1A00204418002008
:10467000FF50004110B50248FFF778FF10BDC0465B
:1046800040180020014B024A1A607047F81C0020B5
:10469000005000417047000010B5FEF77DFC00F0AF
:1046A00049F9FFF7F7FF0120FEF788FB094C2000CE
:1046B000FFF7D8FA2000FFF735FBFDF7B1FDFDF756
:1046C0000FFFFEF79BFB044B002BF8D000E000BF70
:1046D000F5E7C046401800200000000010B500F0CB
:1046E0004DF910BD10B500F053F910BD70B50E00B6
:1046F00000254468002C0BD02368310020005B6843
:104700009847002802DBE4682D18F3E701256D4285
:10471000280070BD70B50D004468002C08D02368D7
:10472000290020009B689847002802D1E468F4E73C
:10473000200070BD70B50D004468002C08D02368BF
:10474000290020001B689847002802D1E468F4E79C
:10475000200070BD064A0123116810B50C00054801
:104760001C40194203D1044944600180136010BD0C
:10477000FC1D0020001E00200204000070B5040093
:10478000012320CC00212A782000134380222B70A3
:10479000520000F010F9AB78DB07FCD4AB789B0734
:1047A000F9D46C6270BD00001F22144B70B51B68F9
:1047B000590B9C0C9B0111405B0F22401F2900D11B
:1047C0001A391F2A00D1023A072B00D1043B1F25BA
:1047D00000688E01048D0A492A4021403143018539
:1047E000018D14000A00AA4322430285028D190399
:1047F000044B13400B43038570BDC046246080000A
:104800003FF8FFFFFF8FFFFF02B4714649084900E0
:10481000095C49008E4402BC7047C0460022430830
:104820008B4274D303098B425FD3030A8B4244D378
:10483000030B8B4228D3030C8B420DD3FF220902BA
:1048400012BA030C8B4202D31212090265D0030B79
:104850008B4219D300E0090AC30B8B4201D3CB036F
:10486000C01A5241830B8B4201D38B03C01A5241B1
:10487000430B8B4201D34B03C01A5241030B8B42B3
:1048800001D30B03C01A5241C30A8B4201D3CB029E
:10489000C01A5241830A8B4201D38B02C01A524183
:1048A000430A8B4201D34B02C01A5241030A8B4286
:1048B00001D30B02C01A5241CDD2C3098B4201D39E
:1048C000CB01C01A524183098B4201D38B01C01A1C
:1048D000524143098B4201D34B01C01A5241030993
:1048E0008B4201D30B01C01A5241C3088B4201D342
:1048F000CB00C01A524183088B4201D38B00C01AEF
:10490000524143088B4201D34B00C01A5241411A15
:1049100000D20146524110467047FFE701B5002022
:1049200000F006F802BDC0460029F7D076E77047D0
:104930007047C04670B500260C4D0D4C641BA4108A
:10494000A64209D1002600F021F90A4D0A4C641B49
:10495000A410A64205D170BDB300EB5898470136AC
:10496000EEE7B300EB5898470136F2E7E800002085
:10497000E8000020E80000200001002010B5034BF3
:104980000100186800F06AF810BDC04684000020DD
:1049900010B5034B0100186800F016F810BDC046B2
:1049A00084000020002310B59A4200D110BDCC5CD9
:1049B000C4540133F8E703008218934200D17047D2
:1049C00019700133F9E7000070B50500002910D017
:1049D0000C1F2368002B00DAE418280000F0B6F85A
:1049E0001D4A1368002B05D163601460280000F095
:1049F000B5F870BDA34208D9216860188342F3D18D
:104A000018685B6841182160EEE71A005B68002BAC
:104A100001D0A342F9D911685018A0420BD12068E7
:104A20000918501811608342E0D118685B6841187A
:104A300011605360DAE7A04202D90C232B60D5E75E
:104A400021686018834203D118685B6841182160AF
:104A500063605460CAE7C046081E0020F8B503230F
:104A6000CD1C9D43083506000C2D1FD20C25A942F4
:104A70001ED8300000F06AF825490A681400002C9E
:104A80001AD1244F3B68002B04D12100300000F0E4
:104A900043F838602900300000F03EF8431C2BD169
:104AA0000C233000336000F059F803E0002DDEDA0B
:104AB0000C2333600020F8BD23685B1B19D40B2B3B
:104AC00003D92360E418256003E06368A2420ED195
:104AD0000B60300000F042F8200007220B30231D4D
:104AE0009043C21A9842E6D01B1AA350E3E75360E2
:104AF000EFE722006468C2E70323C41C9C43A04282
:104B0000E1D0211A300000F007F8431CDBD1C7E7E1
:104B1000081E00200C1E0020002370B5064D040066
:104B200008002B6000F024F8431C03D12B68002BF5
:104B300000D0236070BDC046141E00200023C25C5C
:104B40000133002AFBD1581E7047000010B50248FF
:104B500000F00CF810BDC0461C1E002010B5024825
:104B600000F005F810BDC0461C1E002070477047BD
:104B7000044A03001068002802D0C318136070476D
:104B80000148FAE7101E0020241E0020F8B5C04698
:104B9000F8BC08BC9E467047F8B5C046F8BC08BCD7
:104BA0009E46704742696720427574746F6E20306C
:104BB0000042696720427574746F6E20310042694B
:104BC0006720427574746F6E20320042696720421C
:104BD0007574746F6E203300426967204275747477
:104BE0006F6E20340042696720427574746F6E20C6
:104BF000350042696720427574746F6E203600621A
:104C0000696720427574746F6E20370000000000E1
:104C10000000000011280000712600006D26000031
:104C200095260000B1260000D72800009726000036
:104C3000010000000200000001000000020000006E
:104C40000A00FFFFFFFF0200010000000300000058
:104C500001000000020000000B00FFFFFFFF030047
:104C6000010000000400000001000000020000003C
:104C70000C00FFFFFFFF0400010000000500000022
:104C800001000000020000000D00FFFFFFFF050013
:104C9000010000000600000001000000020000000A
:104CA0000E00FFFFFFFF06000100000007000000EC
:104CB00001000000020000000F00FFFFFFFF0700DF
:104CC00001000000080000000100000002000000D8
:104CD0000200FFFFFFFF08000100000009000000C4
:104CE00001000000020000000300FFFFFFFF0900B9
:104CF00000000000020000000100000002000000AF
:104D00000000FFFFFFFF02000000000003000000A2
:104D100001000000020000000100FFFFFFFF030090
:104D2000000000000400000001000000020000007C
:104D30000400FFFFFFFF040000000000050000006A
:104D400001000000020000000500FFFFFFFF05005A
:104D5000000000000600000001000000020000004A
:104D60000600FFFFFFFF0600000000000700000034
:104D700001000000020000000700FFFFFFFF10001D
:104D8000010000000000000001000000020000001F
:104D90000800FFFFFFFF000001000000010000000D
:104DA00001000000020000000900FFFFFFFF0100FA
:104DB00000000000080000000200000004000000E5
:104DC000FF00FFFFFFFF10000000000009000000CF
:104DD0000200000004000000FF00FFFFFFFF0900C9
:104DE00001000000160000000800000004000000A0
:104DF000FF00FFFFFFFF06000000000010000000A2
:104E00000200000004000000FF00FFFFFFFF0000A1
:104E1000000000001100000002000000040000007B
:104E2000FF00FFFFFFFF010001000000170000006E
:104E30000800000004000000FF00FFFFFFFF070064
:104E4000000000000C000000020000000400000050
:104E5000FF00FFFFFFFF0C00000000000D0000003E
:104E60000200000004000000FF00FFFFFFFF0D0034
:104E7000010000001E000000080000000400000007
:104E8000FF00FFFFFFFF0E00000000001600000003
:104E90000200000004000000FF00FFFFFFFF06000B
:104EA00000000000170000000200000004000000E5
:104EB000FF00FFFFFFFF0700010000001F000000D0
:104EC0000800000004000000FF00FFFFFFFF0F00CC
:104ED000010000000C0000000200000004000000BF
:104EE000FF00FFFFFFFF0C00010000000D000000AD
:104EF0000200000004000000FF00FFFFFFFF0D00A4
:104F00000000000015000000080000000400000080
:104F1000FF00FFFFFFFF0500010000001000000080
:104F20000200000004000000FF00FFFFFFFF000080
:104F30000100000011000000020000000400000059
:104F4000FF00FFFFFFFF0100000000001C00000049
:104F50000800000004000000FF00FFFFFFFF080042
:104F6000000000000A000000040000001C00000017
:104F70001200000100010A00010000000A00000008
:104F8000040000001C0000001300000500050A00DA
:104F9000000000000E000000040000001C000000E3
:104FA000FF00000300030E00010000000B000000E2
:104FB000040000001C000000FF00010501050B00BB
:104FC0000000000014000000040000001C000000AD
:104FD000FF00000700070400000000001C000000A4
:104FE0000600000000000000FF00FFFFFFFFFF00C1
:104FF0000000000018000000060000000000000093
:10500000FF00FFFFFFFFFF0000000000190000008D
:105010000600000000000000FF00FFFFFFFFFF0090
:105020000D0A00000008004214090000000C0042B4
:10503000150A000000100042160B00000014004288
:10504000170C000000180042180D0000001C004260
:10505000190E00000000000000000000B136000042
:10506000DD360000AD360000D1360000C536000048
:105070002537000009370000000000000000000094
:105080002F3B0000153A0000613900000D38000088
:10509000353800004938000043616C69636F0000D7
:1050A000040309044275696C7420427920436174D9
:1050B00073204C4C430012010002EF0201409A237E
:0C50C0000F80000101020301000000004D
:1050CC0040420F00FFFFFFFFFFFFFFFF00C2010088
:1050DC0000000800080B0002020200000904000096
:1050EC00010202000005240010010424020605241C
:1050FC0006000105240101010705810310001009B8
:10510C00040100020A00000007050202400000072B
:10511C000583024000000000FFFFFFFF00000000BD
:10512C00830000000200000082000000000000006C
:10513C000000000000000000000000000000000063
:10514C0000000000880000200000000000000000AB
:10515C000000000000000000000000000000000043
:10516C000000000000000000000000000000000033
:10517C000000000000000000000000000000000023
:10518C000000000000000000000000000000000013
:10519C000000000000000000000000000000000003
:1051AC000000000000000000DD2000009925000038
:1051BC003D2A0000912A0000E537000085460000DA
:1051CC00B5200000000000000000000000000000FE
:0400000300002CEDE0
:00000001FF
