:10200000008000203D29000025290000252900002E
:1020100000000000000000000000000000000000C0
:102020000000000000000000000000002529000062
:102030000000000000000000252900009129000098
:102040002529000025290000252900002529000058
:102050002529000025290000252900002929000044
:102060002529000025290000252900002529000038
:102070002529000025290000252900002529000028
:102080002529000025290000252900002529000018
:102090000000000025290000252900002529000056
:1020A00025290000252900002529000025290000F8
:1020B0000000000010B5064C2378002B07D1054B1B
:1020C000002B02D0044800E000BF0123237010BDA4
:1020D0000001002000000000E0490000044B10B5A2
:1020E000002B03D00349044800E000BF10BDC046E8
:1020F0000000000004010020E0490000E12110B5CB
:102100002B4C4902200000F089FF200000F088FFDE
:102110000028FAD02000274900F03AFE264800F0B7
:102120001BFB002803D12000244900F031FE244885
:1021300000F012FB002803D12000224900F028FE05
:10214000214800F009FB002803D120001F4900F0BE
:102150001FFE1F4800F000FB002803D120001D498E
:1021600000F016FE1C4800F0F7FA002803D120000A
:102170001A4900F00DFE1A4800F0EEFA002803D1CB
:102180002000184900F004FE174800F0E5FA002886
:1021900003D12000154900F0FBFD154800F0DCFAE2
:1021A000002803D12000134900F0F2FD10BDC04605
:1021B000BC010020084400001C010020174400005E
:1021C0002C010020354400003C0100205344000055
:1021D0004C010020714400005C0100208F4400008D
:1021E0006C010020AD4400007C010020CB440000C5
:1021F0008C010020E9440000F7B5854C854920009A
:1022000000F0C6FD00F0D2FB0500834800F0FCFAA8
:1022100006008249200000F0A9FD0A2231002000BA
:1022200000F007FE7E4E2000310000F09FFD00F020
:10223000BDFB0A22411B200000F0FFFD794D20006C
:10224000290000F0A5FD00F0B1FB0190764800F0F8
:10225000DBFA07007549200000F088FD0A223900EA
:10226000200000F0E6FD3100200000F07FFD00F0CE
:102270009DFB019B0A22C11A200000F0DEFD29000F
:10228000200000F085FD00F091FB0190684800F00F
:10229000BBFA07006749200000F068FD0A223900F8
:1022A000200000F0C6FD3100200000F05FFD00F0CE
:1022B0007DFB019B0A22C11A200000F0BEFD29000F
:1022C000200000F065FD00F071FB01905A4800F01D
:1022D0009BFA07005949200000F048FD0A22390006
:1022E000200000F0A6FD3100200000F03FFD00F0CE
:1022F0005DFB019B0A22C11A200000F09EFD29000F
:10230000200000F045FD00F051FB01904C4800F02A
:102310007BFA07004B49200000F028FD0A22390013
:10232000200000F086FD3100200000F01FFD00F0CD
:102330003DFB019B0A22C11A200000F07EFD29000E
:10234000200000F025FD00F031FB01903E4800F038
:102350005BFA07003D49200000F008FD0A22390021
:10236000200000F066FD3100200000F0FFFC00F0CE
:102370001DFB019B0A22C11A200000F05EFD29000E
:10238000200000F005FD00F011FB0190304800F046
:102390003BFA07002F49200000F0E8FC0A22390030
:1023A000200000F046FD3100200000F0DFFC00F0CE
:1023B000FDFA019B0A22C11A200000F03EFD29000F
:1023C000200000F0E5FC00F0F1FA0190224800F056
:1023D0001BFA07002149200000F0C8FC0A2239003E
:1023E000200000F026FD3100200000F0BFFC00F0CE
:1023F000DDFA019B0A22C11A200000F01EFD29000F
:10240000200000F0C5FCC82000F006FBF7BDC04668
:10241000BC010020074500001C0100202E450000E3
:1024200036450000394500002C0100203E450000E3
:102430003C010020464500004C0100204E450000B4
:102440005C010020564500006C0100205E45000044
:102450007C010020664500008C0100206E450000D4
:1024600013B5022300241A00082100941A4800F032
:1024700003FA022309211A000094184800F0FCF91D
:1024800002230A211A000094154800F0F5F90223EE
:102490000B211A000094134800F0EEF902230C21DE
:1024A0001A000094104800F0E7F902230D211A00E9
:1024B00000940E4800F0E0F902230E211A00009467
:1024C0000B4800F0D9F902230F211A0000940948A3
:1024D00000F0D2F913BDC0461C0100202C010020E1
:1024E0003C0100204C0100205C0100206C01002018
:1024F0007C0100208C0100204378DB09FCD170476F
:1025000001235B4203800333438000230371802354
:102510009B01C3803F23037270470000F8B50E0093
:1025200009783F4A4B090400DB011F209B18012258
:1025300008408240102508002840294265D08020AC
:10254000110C00060143374804270143996220001B
:102550005A60FFF7D1FF02222378200093432370B3
:10256000FFF7CAFF082223792000934323712379C0
:10257000053ABB4323712379012593432371FFF768
:10258000BBFF6022237B200093432373FFF7B4FF3C
:102590001022237B200093432373FFF7ADFF0F220C
:1025A000237B20009343237363792B436371237848
:1025B0001F432770FFF7A0FF0222237A2000134356
:1025C0002372FFF799FF237A20002B432372FFF732
:1025D00093FF0123F356072B19DC2000FFF78CFF34
:1025E0000122B256237D95401D43EDB22000257592
:1025F000FFF782FF2000FFF77FFF022322782000F1
:1026000013432370FFF778FFF8BD91B29AE70F2BC1
:10261000F0DC083B9D40627D1543EDB26575E9E74E
:102620000044004100000151042370B5040002255C
:1026300002780E0013430370FFF75EFF237820003B
:102640002B432370FFF758FF237A20002B4323727C
:10265000FFF752FFA37A20001D43A5720125FFF763
:102660004BFFA37A20002B43A372FFF745FF200006
:10267000FFF742FF0123F3560022072B4DDC9D405C
:10268000EDB2257462742000FFF736FF0321F27863
:10269000E37E0A408B4313432000E376FFF72CFFD1
:1026A0000721B278637B0A408B4313436373200096
:1026B000FFF722FF32791023002A34D1227B9A437C
:1026C00022730F22237B93433F2520002373FFF7C0
:1026D00013FFF3882000DAB22276627E1B0AAA4337
:1026E0002B4013436376FFF707FF327AA37E2A401D
:1026F000AB4313432000A376FFF7FEFEA422631C26
:102700002000DA77FFF7F8FE8023627B5B421343F9
:1027100020006373FFF7F0FE70BD083B9D40EDB2F3
:1027200022746574AFE70F21227B13432373727900
:10273000237B0A408B431343C6E7437B0120DB091D
:102740005840704710B50400FFF7D6FE237F607F26
:102750000002184310BD0000052370B5C3560100E8
:10276000002001332DD072B622231648164A03707A
:10277000164B174E5D885C882D0514405C805C8884
:102780002D0F344080265C801400F6015A883242B6
:10279000FCD15A882D0222402A435A8062B60D4A43
:1027A00004315A80222202705A8832435A80802390
:1027B000094A1B03106A034313620848FFF7AEFE81
:1027C000012070BD020C0040FFF0FFFF000C004034
:1027D000FFBFFFFF2203000000040040004C004246
:1027E000011D10B50748FFF71FFF0648FFF7A5FFBB
:1027F000002802D100F030F9F7E70248FFF7A2FF06
:1028000010BDC046004C004210B50400FFF7E8FFC1
:102810000200A079062805D801F028FC05070A0C5B
:102820000E101200074A100010BD53089AB2FAE7C2
:102830009308FBE7D308F9E71309F7E75309F5E72E
:102840009309F3E7FFFF000018230168094A4B438F
:10285000D1189B564868002B03D10238052806D8AA
:102860007047012B03D1092801D80630F8E7012071
:102870004042F5E778450000F7B51E0008AB1B782D
:102880000400043017000D000193FFF739FE1821F2
:1028900025604D43094A2000AB565519013B59426A
:1028A0004B416A685B019B182371FFF7CDFF019BC9
:1028B0006071A7712000E6712372FEBD78450000AB
:1028C00010B50C490C4800F00DFB0C490C4800F009
:1028D00009FB0C490C4800F005FB0C490C4800F0C2
:1028E00001FB0C490C4800F0FDFA0C490C4800F0C3
:1028F000F9FA10BD000800429C010020000C0042C3
:10290000A001002000100042A40100200014004299
:10291000A801002000180042AC010020001C004269
:10292000B0010020FEE70000034B10B51B68002B30
:1029300000D0984710BDC046B40100200F4A10488F
:10294000110010B50F4B824202D0934209D11300FF
:10295000824209D100F084F801F0D0FAFEE710CBF2
:1029600010C18142FBD3F3E7074A8B42F2D000212A
:10297000064B9A42EED202C2FBE7C046000000209E
:1029800000010020E449000000010020BC070020F5
:1029900010B500F062F8002801D100F053F810BD26
:1029A000014B18607047C046B4010020014B186805
:1029B0007047C046B8010020F7B51348012284468D
:1029C0001249134C8E68636805689B0E1340019290
:1029D00088686268019F920E3A4067463F6893425A
:1029E0000ED1BD420CD186420AD35B19FA25486844
:1029F000AD00861B07486B437043000DC018FEBD39
:102A00003D0013000600E3E7B801002010E000E0FD
:102A100000ED00E05555000070B5041E11D0FFF721
:102A2000CBFFFA260500B60000F016F8FFF7C4FF4A
:102A3000401BB042F8D3FA23013C9B00ED18002C58
:102A4000F4D170BD10B5034A13680133136000F070
:102A50000FFA10BDB8010020704700207047000039
:102A60001E22F0B5504851494368514D93431A0016
:102A700002231343436008238A691343FE228B61B8
:102A80002B68D2039B0213404A4A13434A4A93617C
:102A900013000422DC681442FCD00124474A14705D
:102AA0001678264203D0567876B2002EF8DB012441
:102AB0009460547864B2002CFBDB414C5460547831
:102AC00064B2002CFBDB8224E4015480547864B2AD
:102AD000002CFBDB02249C840E34DE682642FCD0F2
:102AE000384CDC621024DE682642FCD02C68A40E30
:102AF0003F2C00D1203C9E6A334FA4023E40344319
:102B00009C629C6A314EA40AA40234439C62304CFD
:102B1000DC6200249C841034DE682642FCD02D4CFC
:102B20009C841024DE682642FCD002249E8C344310
:102B30009C841024DE682642FCD0002494605478E3
:102B400064B2002CFBDB244C5460547864B2002C3B
:102B5000FBDB1C6A214E344080261C621C6AB44395
:102B60001C62032393601E4B536053785BB2002BAF
:102B7000FBDB0023FF240B721A4A4B728B72CB7261
:102B8000194B1A60194A2B6811689A065B01C90E25
:102B90002340520F12020B431343154A138580231F
:102BA000426813434360F0BD004000410004004010
:102BB000246080000606000000080040000C004071
:102BC00001040100B905FF7DFF03FFFFFF010000C5
:102BD00080BB0A1C2405000000070300FFFCFFFF68
:102BE00003060100006CDC02000000202060800071
:102BF00000400042FA212E4B10B51868890001F000
:102C00003FFA802301385B0498424FD229492A4A6F
:102C10004860C020136A00061B021B0A03431362AC
:102C200000238B6007330B608021136A09061B02A7
:102C30001B0A0B431362FC22204B196A0A431A62D7
:102C4000FF22196A12020A431A62A022196AD202EA
:102C50000A431A621A4B1C005A7852B2002AFBDB54
:102C6000184A5A80184B1A00597EC9090129FBD00D
:102C7000C821890099800521D970537EDB09012B79
:102C8000FBD0C02300205B011361907000F022F89C
:102C900063785BB2002BFBDB0C4B0D4A6380D3796E
:102CA000DB09012BFBD04123537010BDFEE7C0466A
:102CB0000000002010E000E000ED00E00004004013
:102CC000000C00401E400000004000422140000077
:102CD000004800421C4900B50B004A7ED209012A77
:102CE000FBD001380A2829D801F0C0F91B28282870
:102CF00028280628282411001A6914490A400F219F
:102D00001A615A788A43110001220A4310E01A69B5
:102D10000E490A400F211A615A788A431100032292
:102D2000F3E71A6909490A400F211A615A788A4360
:102D30005A7000BD1A6905490A401A610F215A7874
:102D40008A4311000222E0E700400042FFFFFFF04B
:102D500070B505000C00081E07D001F021FB2B68A0
:102D60000200210028005B68984770BD10B5FFF78E
:102D7000EFFF10BD10B503681B68984710BD000039
:102D800010B50249FFF7E4FF10BDC04668490000D6
:102D900070B50400FFF7DCFF05002000FFF7F0FF2F
:102DA000401970BDF0B58BB06B461400002205339E
:102DB00007000D00DA77012C00D80A2409AE28009C
:102DC000210001F0E3F90300CAB2080029001D0048
:102DD00013003733DBB2092802D813003033DBB2DB
:102DE000013E33708C42EAD931003800FFF7B0FF62
:102DF0000BB0F0BDF8B507000D00161E04D1036836
:102E0000C9B21B689847F8BD0A2A0CD100290BDA11
:102E10002D21FFF7AFFF3200040069423800FFF7B1
:102E2000C1FF2018EFE7D2B229003800FFF7BAFF40
:102E3000E9E710B5FFF7DEFF10BD10B5002A04D199
:102E40000368C9B21B68984710BDD2B2FFF7AAFF4A
:102E5000FAE70000014B18607047C04604000020EC
:102E60000122024B52421A607047C0460400002003
:102E7000164A10B51368591C27D0013B1360002B6C
:102E800023D172B68122124B92000433934213D3A2
:102E9000104A01211000147D0C42FCD02021148B1B
:102EA000FF319B085B0021431183D3610A4B1380E0
:102EB0000123027D1A42FCD0BFF34F8F074B084A13
:102EC000DA60BFF34F8FC046FDE710BD040000205D
:102ED000002000000040004102A5FFFF00ED00E0DF
:102EE0000400FA05016070473F20704713B56B4638
:102EF0000268D9710733546819000122A04716BD32
:102F000010B50221006900F025FC10BD10B50321A9
:102F1000006900F035FC10BD10B51300084A04002C
:102F2000D279002A03D101230020636010BD0A007A
:102F30000069032100F010FD0028F4D0F6E7C04638
:102F40000C00002010B5054C03002068421C04D181
:102F50001A68180052699047206010BD5800002080
:102F6000074A0300106810B5411C03D001235B42DF
:102F7000136010BD0221186900F0E0FCF9E7C046BB
:102F80005800002010B50378422202330370024932
:102F9000024800F081FD10BD14000020D80100207F
:102FA00010B50178030042780020A12908D1212A18
:102FB00005D1174917481A3A00F06EFD012010BDDF
:102FC0002129FCD1202A13D111491248193A00F0C5
:102FD0001BFC96220E4BD200196891420ED1DA7971
:102FE00001231A420AD1FA20FFF734FF0020E6E756
:102FF000222A06D19A78064BDA71EAE7FFF730FF0A
:10300000F4E7232ADBD15A88034B1A60D7E7C0467E
:103010000C000020D80100200800002070470000AC
:1030200010B5FFF7C3FCFA2300245B00984207D3D6
:10303000044B0A20DC79631E9C41E4B2FFF7ECFCF0
:10304000200010BD0C000020FA220021054B920048
:103050009A60054A08321A60044A59601A61197662
:103060007047C046BC0100206C490000D801002018
:10307000704770B50F26CB1D02003240D5B22C0030
:1030800000093034092A00DD07341C705A1E9942A9
:1030900000D170BD1300EFE710B50400806901F0A6
:1030A000A9F8A06A01F0A6F8200010BD10B5040030
:1030B000FFF7F2FF200000F047FF200010BD0000E6
:1030C00070B5032908D1324B8000C058002802D0C7
:1030D0000368DB68984770BD82291FD1C3B22D4DAC
:1030E0005A01AA1891692C4C80010C40C021890515
:1030F00021439161294908334018802150612A6891
:103100005B01D01804794942214301717020995C18
:1031100081430800302101439954DCE70029DAD1CA
:10312000C024C1B21B4E4A01B21893681A4DA405BF
:103130002B40234393601A4B8001C0180B00506052
:103140003068072608335B01195CB1430E0001218A
:103150003143195491690D402C43946170240F49F7
:103160005161195CA1430C0010212143195491684D
:103170000C4CC3180C408021490321439160916895
:10318000890B89039160402259790A435A71A2E759
:10319000DC01002090060020FFFFFF8F04020020CA
:1031A000C4030020FF3F00F0EFF31083036001230E
:1031B000436072B670470368002B02D162B6BFF35A
:1031C0006F8F704737B5056904006846002D14D12C
:1031D000FFF7EAFF019B621D013B02D3D57FEDB2F1
:1031E000FAE768460193FFF7E6FF002D01D10020C2
:1031F0003EBD206AE369C01AFAE7FFF7D5FF220057
:103200000025019B3432013B02D31578EDB2FAE779
:1032100068460193FFF7CFFF002DE8D0206BE36AEB
:10322000E9E70000F0B5FF250126426883681168D0
:103230002B405B01CC186419A77AD3183E43A672C1
:10324000C6689C680B4FB60436093C4034439C600A
:1032500083682B405B01D2189468A40BA40394608C
:10326000402283682B4008335B01CB1819790A434D
:103270001A71F0BDFF3F00F0F7B5056904000E00BC
:1032800017006846002D43D1FFF78EFF019B601D9C
:10329000013B5A1C0BD0C27F591E002A05D168463B
:1032A0000193FFF788FF2800FEBD0B00F1E7684699
:1032B0000193FFF780FFE369AF420AD0226A9A4286
:1032C00007D95A1CE261A269D3181B7873550135DE
:1032D000F1E7226A9A42E6D10023E36101336846AE
:1032E0002361FFF761FF22000021019B671D013B65
:1032F0003532581CD3D0F97710785E1E002805D0DF
:10330000200011700193FFF78DFFECE73300F0E729
:10331000FFF74AFF2000019B3430013B5A1C06D0C6
:103320000278591ED5B2002AB9D00B00F6E76846DC
:1033300001930025FFF73FFFE36ABD4202D0226BF5
:103340009A421CD8226B9A42ADD100236846E362B0
:103350002361FFF729FF270022000021019B34375A
:10336000013B3532581C9AD0397010785E1E002807
:103370000DD0200011700193FFF754FFEBE75A1CAA
:10338000E262A26AD3181B7873550135D4E7330083
:10339000E8E7F7B582684368D2B21100040008314B
:1033A000186849014118C879C00729D5012552017B
:1033B000CD719B189A6861699204920C002923D1FF
:1033C0002262226A002A41D0A26A656168465A6078
:1033D000FFF7EAFE342294462200019B671D013B61
:1033E000A4443532591C2DD06146FD770978581E0A
:1033F000CEB2002905D0019368461570FFF7DBFEB9
:10340000F7BD03001670EDE72263226B002A1DD082
:10341000002227006261A26968465A60FFF7C4FE75
:10342000019B621D9446013B34373032591C09D050
:1034300061463D70C97F581ECEB20029DBD1030022
:103440001670F3E768460193FFF7B5FE2000FFF71B
:10345000E9FED5E713B56A4600230C00D01DD371F1
:10346000FFF790FD23681818206000F0A5FD6B465B
:10347000D91D00F06DFD236818186B462060D879BF
:1034800016BD000003290ED180220E4B62311B684D
:10349000FF31585C524202435A5468226339FF326A
:1034A000FF39995470470129FCD18022054B243102
:1034B0001B68FF31585C524202435A542822233978
:1034C000FF32EDE7900600202023264A70B5D1692F
:1034D00004000B43D36101220F2023490B781343CF
:1034E0000B70224B19788143197006211D782943EE
:1034F00019701F490D782A430A701A7802401A7011
:10350000602219780A431A701A4B1B4A5A805A785B
:10351000D209FCD11948FFF743FA194D280000F0F1
:103520005FFD280000F072FD7F212B68C1201A7812
:1035300080000A401A70042219780A430C211A707C
:103540001A898A430F491A810A581202120A0A502C
:1035500080220A6019787E3A0A431A700123237088
:1035600070BDC04600040040584400413C44004146
:1035700059440041000C004006400000D93E0000C4
:103580009006002000E100E00078002810D0012122
:10359000084B1B681A898A431A810822198B0A432F
:1035A0001A830422198B0A431A830022024B1A60E1
:1035B0007047C04690060020880600200A000E4989
:1035C0008B699B0B9B038B610B680221FF33197284
:1035D0009879823901439971197A8907FCD57F203E
:1035E000064B0240997A8143114380229972997A5D
:1035F00052420A439A7270479006002000500041E0
:1036000010B50B790C00002B0CD10800FFF7C8FC9B
:10361000002801D0012010BD094A93699B0B9B0330
:103620009361F7E700F0C8FC210000F0B5FC00282A
:10363000F0D1034A93699B0B9B039361EBE7C04670
:1036400090060020F7B50D001100832A19D1EBB2C6
:10365000324C5A01A21891693148AD010840C0218D
:103660008905014391612F4920686D187021083345
:1036700055615B011A5C8A43110040220A431A54C7
:10368000F7BD022A45D1284AAB009858002802D03D
:1036900003685B699847382000F052FC234B802771
:1036A000036000231D4E7F00421D036203614361DE
:1036B000C36146608560C760D3772F32C3620363FE
:1036C000040013703800537000F08AFD0190A0616F
:1036D000380000F085FDEBB25A01A062B218916883
:1036E0000F4808330840C0218905014391603168C3
:1036F00007265B01585CAD00B04306000320304351
:103700005854019B20005360FFF78CFD064B5C5121
:10371000B6E72800FFF7D4FCB2E7C04690060020C9
:10372000FFFFFF8F04020020DC0100209849000009
:1037300070B505000124064BA200D258002A05D01E
:1037400021002800FFF77EFF0134F4E770BDC0467A
:103750005C000020084B8A00D05810B5002803D028
:1037600003689B68984710BD044BC9B249015918BA
:1037700088688004800CF6E7DC01002090060020B9
:1037800010B50C00FFF7E6FF00280CD0064BE4B2A2
:1037900019688023083464010C1962795B42134371
:1037A00063710223E37110BD9006002070B5CBB2A7
:1037B000124A13485C018901891802195160916805
:1037C000104D08330D408021890229434025916026
:1037D0009168890B8903916001685A018A181679EA
:1037E0003543157195796D06FCD55B01C918CB7908
:1037F000DB07FCD500198068C0B270BDC40300208F
:1038000090060020FF3F00F070B5140040220B4BE3
:103810000D001B68FF3359790A435A710021FFF7E5
:10382000C5FFA04200D9200000230549A34203D0D0
:10383000CA5CEA540133F9E770BDC0469006002027
:10384000C403002010B50C48C9B24901421893685E
:103850009B049B0C3F2B0BD99468403B9B04A40B0F
:103860009B0CA4032343936041188868C0B210BD29
:1038700093689B0B9B03F6E790060020F0B51C00B5
:103880002A4B85B01B6806000D000192002B49D021
:10389000274B8A00D058002808D0036822005B68B4
:1038A000019998470400200005B0F0BD3000FFF7F3
:1038B00051FF844204D929003000FFF74BFF040078
:1038C00029003000FFF7BEFF0121EBB2194F03932F
:1038D0005B010293029A3B6801989B18FF335A7A66
:1038E0000A435A72144BA9012200C91800F08CFC3B
:1038F000002CD8D029003000FFF72CFF0028D2D1AF
:103900004021039B3A6808335B01D31818790143BF
:1039100019710121D971029BD318FF339A7A0A4396
:103920009A72C0E701246442BDE7C04688060020C1
:10393000DC01002090060020C403002013B56B4674
:10394000DC1D22000123FFF799FF012801D1207817
:1039500016BD01204042FBE7F0B51C00354B85B099
:103960001B680E000192002B35D08023DB019C42A6
:1039700031D80027304B8A01D3180293002C2CD069
:103980002E4B1B680393FF2333401D000093083523
:10399000039B6D015D19AB79DB0921D0284B2949C7
:1039A000186800F06DFB284B1721584300F068FBA6
:1039B000264BEA79920713D49A5D002A01D1013887
:1039C000F7D201229A55009B5A011C4B9B189A6909
:1039D000920B92039A6101277F42380005B0F0BD37
:1039E00000221A4B25009A55402C00D940252A0068
:1039F0000199029800F008FC009BA9045A010F4BA2
:103A0000890C9B18029A7F195A619A69641B920B60
:103A100092030A439A61009B039A08335B01D3180F
:103A20000222DA715979823A0A435A71019B5B1971
:103A30000193A3E7880600200402002090060020DE
:103A40000000002040420F0070110100F901002029
:103A500070B50C001D000D4BA601F61811003000CA
:103A60002A0000F0D1FBE4B2094A6401141966612E
:103A7000A369084928000B40A361A169AB04890B25
:103A80009B0C89031943A16170BDC046040200204C
:103A900090060020FF3F00F0F7B5104B0F001B7899
:103AA00014000190002B0CD10D4B16001D78002D39
:103AB00009D00C4E0C48358828182D1900F0A4FBAD
:103AC00035802000FEBD002EFBD033007A19002186
:103AD0000198FFF7BDFF2D18361AF4E78405002082
:103AE000850600208606002085050020F8B5002008
:103AF0000D00140000AF012A27D9D31D6A46DB0848
:103B0000DB00D31A9D46080000F04AFC6E460323F2
:103B1000022200210130400030707370A2420DD2A9
:103B2000287800280AD0531CDBB20135B0549C42DF
:103B300003D00232F154D2B2F0E72200310004483F
:103B4000FFF7AAFF431E9841C0B2BD46F8BDC0466C
:103B5000D8010020F0B50025012785B0184B0E00D4
:103B600069461F7004000095FFF774FC154B01A90E
:103B70000B806A3BFF3BCB716E3B0B72009B3200AC
:103B800009334B800E4B8D714F7108711D70092EDA
:103B90000FD00D4E092237700C4F200000953D804C
:103BA000FFF77AFF69462000FFF754FC3A8808497E
:103BB00035702000FFF770FF012005B0F0BDC04652
:103BC00084050020090200008506002086060020EA
:103BD00085050020F0B5CF7805000E0093B0022FC8
:103BE00009D1C9882B48FFF7B5FF441EA041C4B2D4
:103BF000200013B0F0BD00F0DFF9310000F0BCF997
:103C0000002803D0C417241AE40FF1E7012F0BD1C9
:103C1000F2882149112A11D8D2B2002A0ED02800E8
:103C2000FFF73AFF0124E3E70400032FE0D1B37864
:103C3000002B05D1F2881949032AEDD90A78EEE75D
:103C4000022B06D1B27916492800FFF74FFF040076
:103C5000CEE7012B02D1B2791249F5E7032BC7D188
:103C6000114B01A91868FFF704FA104B03A9186853
:103C7000FFF7FFF90E4B05A91868FFF7FAF90D4B8E
:103C800007A91868FFF7F5F96B460533DC77B279B9
:103C900001A9D9E7D8010020CE490000B8490000A9
:103CA000B0490000BC4900000CA0800040A080008A
:103CB00044A0800048A0800037B5050048780C007B
:103CC0000B2810D800F0D2F9061B0F310F484D75A4
:103CD00051546E71097801AA002906D1022311807E
:103CE0002800FFF7B5FE01203EBD00231380324BB4
:103CF0001B78012B00D1137002230021F0E78A7892
:103D00000023012A09D16A4693802C4B1B78012B92
:103D100000D11371022301AAEFE7274A1370284A42
:103D200093699B0B9B039361DDE78C78012C07D192
:103D3000224B01AA1C70234B1B7813702300DCE775
:103D400000208442D0D11C4B01301D4A1870936969
:103D50009B0B9B039361C7E728008978FFF72EFC34
:103D6000C1E72800FFF736FFBEE70123164AC4E784
:103D70000B780020DB06B7D12800FFF7D9FC2A20FA
:103D80000221A278104BFF301A600D4A13681C5CA8
:103D900021434A241954FF34195D2938FF3801435F
:103DA0001955D4E70123094AA7E78A78074B1A6017
:103DB000B5E7002098E7C046F80100200002002087
:103DC000900600206A490000880600208C0600202A
:103DD0003B4BF7B51C780700002C64D1394E336893
:103DE0009B8B1B070ED521002000FFF769F9326875
:103DF00010231100FF31887A03438B72324B1C6011
:103E00000823938333689A8B520701D504229A833F
:103E1000FF331A7AD2061ED510221A72597930321F
:103E20000A435A716023294938000A781A423BD163
:103E3000FFF742FF3368FF33002838D0802299799A
:103E400052420A439A711A7A520604D540221A72D3
:103E5000597A0A435A72336800241D8C01239D430A
:103E6000EDB20193E1B2002D1DD02B002341019A48
:103E7000134215D02300326808335B01D318DA7976
:103E8000D20702D4DB799B0707D5114BA200D0588B
:103E9000002810D003681B689847019BA3409D43EE
:103EA0000134092CDED1F7BDFFF7AAFBC2E72021C0
:103EB000084A9171C7E73800FFF7E4FAEDE7C0461A
:103EC000850600209006002088060020C4030020FC
:103ED000DC010020FF50004110B50248FFF778FFD9
:103EE00010BDC046D8010020014B024A1A6070473D
:103EF00090060020005000417047000010B5FEF70A
:103F000079FE00F049F9FFF7F7FF0120FEF784FD85
:103F1000094C2000FFF7D8FA2000FFF735FBFEF729
:103F2000EDF8FEF769F9FEF797FD044B002BF8D08A
:103F300000E000BFF5E7C046D80100200000000007
:103F400010B500F04DF910BD10B500F053F910BDDB
:103F500070B50E0000254468002C0BD0236831009A
:103F600020005B689847002802DBE4682D18F3E71F
:103F700001256D42280070BD70B50D004468002C0D
:103F800008D02368290020009B689847002802D1A8
:103F9000E468F4E7200070BD70B50D004468002CA3
:103FA00008D02368290020001B689847002802D108
:103FB000E468F4E7200070BD064A0123116810B5DB
:103FC0000C0005481C40194203D10449446001809B
:103FD000136010BD94070020980700200204000021
:103FE00070B50400012320CC00212A78200013435F
:103FF00080222B70520000F010F9AB78DB07FCD464
:10400000AB789B07F9D46C6270BD00001F22144B83
:1040100070B51B68590B9C0C9B0111405B0F224033
:104020001F2900D11A391F2A00D1023A072B00D1CB
:10403000043B1F2500688E01048D0A492A40214057
:1040400031430185018D14000A00AA4322430285F1
:10405000028D1903044B13400B43038570BDC0460A
:10406000246080003FF8FFFFFF8FFFFF02B471461E
:1040700049084900095C49008E4402BC7047C046AB
:10408000002243088B4274D303098B425FD3030A97
:104090008B4244D3030B8B4228D3030C8B420DD3AA
:1040A000FF22090212BA030C8B4202D31212090238
:1040B00065D0030B8B4219D300E0090AC30B8B4276
:1040C00001D3CB03C01A5241830B8B4201D38B0324
:1040D000C01A5241430B8B4201D34B03C01A5241C9
:1040E000030B8B4201D30B03C01A5241C30A8B420C
:1040F00001D3CB02C01A5241830A8B4201D38B02F7
:10410000C01A5241430A8B4201D34B02C01A52419A
:10411000030A8B4201D30B02C01A5241CDD2C3090C
:104120008B4201D3CB01C01A524183098B4201D388
:104130008B01C01A524143098B4201D34B01C01A73
:10414000524103098B4201D30B01C01A5241C308EB
:104150008B4201D3CB00C01A524183088B4201D35A
:104160008B00C01A524143088B4201D34B00C01A46
:104170005241411A00D20146524110467047FFE7B2
:1041800001B5002000F006F802BDC0460029F7D0B6
:1041900076E770477047C04670B500260C4D0D4C51
:1041A000641BA410A64209D1002600F021F90A4D93
:1041B0000A4C641BA410A64205D170BDB300EB5895
:1041C00098470136EEE7B300EB5898470136F2E71F
:1041D000E8000020E8000020E8000020FC000020AB
:1041E00010B5034B0100186800F06AF810BDC04616
:1041F0008400002010B5034B0100186800F016F889
:1042000010BDC04684000020002310B59A4200D1A2
:1042100010BDCC5CC4540133F8E70300821893420C
:1042200000D1704719700133F9E7000070B505003F
:10423000002910D00C1F2368002B00DAE418280096
:1042400000F0B6F81D4A1368002B05D163601460B6
:10425000280000F0B5F870BDA34208D921686018A5
:104260008342F3D118685B6841182160EEE71A00B9
:104270005B68002B01D0A342F9D911685018A04205
:104280000BD120680918501811608342E0D11868DA
:104290005B68411811605360DAE7A04202D90C2331
:1042A0002B60D5E721686018834203D118685B68EA
:1042B0004118216063605460CAE7C046A00700202F
:1042C000F8B50323CD1C9D43083506000C2D1FD2E5
:1042D0000C25A9421ED8300000F06AF825490A686A
:1042E0001400002C1AD1244F3B68002B04D121006C
:1042F000300000F043F838602900300000F03EF84C
:10430000431C2BD10C233000336000F059F803E03C
:10431000002DDEDA0C2333600020F8BD23685B1B20
:1043200019D40B2B03D92360E418256003E06368DC
:10433000A2420ED10B60300000F042F820000722AC
:104340000B30231D9043C21A9842E6D01B1AA3508B
:10435000E3E75360EFE722006468C2E70323C41C6D
:104360009C43A042E1D0211A300000F007F8431C22
:10437000DBD1C7E7A0070020A4070020002370B509
:10438000064D040008002B6000F024F8431C03D104
:104390002B68002B00D0236070BDC046AC07002006
:1043A0000023C25C0133002AFBD1581E7047000075
:1043B00010B5024800F00CF810BDC046B40700204C
:1043C00010B5024800F005F810BDC046B407002043
:1043D00070477047044A03001068002802D0C318D1
:1043E000136070470148FAE7A8070020BC070020C7
:1043F000F8B5C046F8BC08BC9E467047F8B5C04644
:10440000F8BC08BC9E46704746726565546F75637C
:10441000682074657374004661696C656420746F0C
:1044200020626567696E207174206F6E2070696EFE
:1044300020413032004661696C656420746F2062EF
:104440006567696E207174206F6E2070696E2041FF
:104450003033004661696C656420746F2062656763
:10446000696E207174206F6E2070696E2041303447
:10447000004661696C656420746F20626567696ECF
:10448000207174206F6E2070696E204130350046B7
:1044900061696C656420746F20626567696E207164
:1044A00074206F6E2070696E20413036004661695D
:1044B0006C656420746F20626567696E207174207A
:1044C0006F6E2070696E20413037004661696C65FF
:1044D0006420746F20626567696E207174206F6E4E
:1044E0002070696E20423030004661696C6564203E
:1044F000746F20626567696E207174206F6E207022
:10450000696E20423031000A2A2A2A2A2A2A2A2AB7
:104510002A2A2A2A2A2A2A2A2A2A2A2A2A2A2A2AFB
:104520002A2A2A2A2A2A2A2A2A2A2A2A2A005054C5
:104530004320303A2000202800206D732900505479
:104540004320313A200050544320323A2000505446
:104550004320333A200050544320343A2000505432
:104560004320353A200050544320363A200050541E
:104570004320373A20000000010000000200000044
:1045800001000000020000000A00FFFFFFFF020020
:104590000100000003000000010000000200000014
:1045A0000B00FFFFFFFF03000100000004000000FC
:1045B00001000000020000000C00FFFFFFFF0400EC
:1045C00001000000050000000100000002000000E2
:1045D0000D00FFFFFFFF05000100000006000000C6
:1045E00001000000020000000E00FFFFFFFF0600B8
:1045F00001000000070000000100000002000000B0
:104600000F00FFFFFFFF070001000000080000008F
:1046100001000000020000000200FFFFFFFF080091
:10462000010000000900000001000000020000007D
:104630000300FFFFFFFF0900000000000200000070
:1046400001000000020000000000FFFFFFFF020069
:104650000000000003000000010000000200000054
:104660000100FFFFFFFF0300000000000400000046
:1046700001000000020000000400FFFFFFFF040033
:104680000000000005000000010000000200000022
:104690000500FFFFFFFF050000000000060000000E
:1046A00001000000020000000600FFFFFFFF0600FF
:1046B00000000000070000000100000002000000F0
:1046C0000700FFFFFFFF10000100000000000000D6
:1046D00001000000020000000800FFFFFFFF0000D3
:1046E00001000000010000000100000002000000C5
:1046F0000900FFFFFFFF01000000000008000000AC
:104700000200000004000000FF00FFFFFFFF100098
:10471000000000000900000002000000040000008A
:10472000FF00FFFFFFFF090001000000160000006E
:104730000800000004000000FF00FFFFFFFF06006C
:104740000000000010000000020000000400000053
:10475000FF00FFFFFFFF000000000000110000004D
:104760000200000004000000FF00FFFFFFFF010047
:104770000100000017000000080000000400000015
:10478000FF00FFFFFFFF0700000000000C0000001B
:104790000200000004000000FF00FFFFFFFF0C000C
:1047A000000000000D0000000200000004000000F6
:1047B000FF00FFFFFFFF0D00010000001E000000D2
:1047C0000800000004000000FF00FFFFFFFF0E00D4
:1047D00000000000160000000200000004000000BD
:1047E000FF00FFFFFFFF06000000000017000000B1
:1047F0000200000004000000FF00FFFFFFFF0700B1
:10480000010000001F00000008000000040000007C
:10481000FF00FFFFFFFF0F00010000000C00000081
:104820000200000004000000FF00FFFFFFFF0C007B
:10483000010000000D000000020000000400000064
:10484000FF00FFFFFFFF0D0000000000150000004B
:104850000800000004000000FF00FFFFFFFF05004C
:104860000100000010000000020000000400000031
:10487000FF00FFFFFFFF000001000000110000002B
:104880000200000004000000FF00FFFFFFFF010026
:10489000000000001C0000000800000004000000F0
:1048A000FF00FFFFFFFF0800000000000A000000FB
:1048B000040000001C0000001200000100010A00BA
:1048C000010000000A000000040000001C000000BD
:1048D0001300000500050A00000000000E000000A3
:1048E000040000001C000000FF00000300030E0095
:1048F000010000000B000000040000001C0000008C
:10490000FF00010501050B0000000000140000007D
:10491000040000001C000000FF0000070007040066
:10492000000000001C000000060000000000000065
:10493000FF00FFFFFFFFFF00000000001800000065
:104940000600000000000000FF00FFFFFFFFFF0067
:104950000000000019000000060000000000000038
:10496000FF00FFFFFFFFFF000D0A00000000000036
:1049700000000000ED2E0000192F0000E92E0000BD
:104980000D2F0000012F0000612F0000452F0000B7
:1049900000000000000000009333000079320000A6
:1049A000C53100007130000099300000AD300000CA
:1049B00043616C69636F0000040309044275696C0C
:1049C000742042792043617473204C4C43001201DF
:1049D0000002EF0201409A230F800001010203014F
:0449E00000000000D3
:1049E40040420F00FFFFFFFFFFFFFFFF00C2010077
:1049F40000000800080B0002020200000904000085
:104A0400010202000005240010010424020605240A
:104A140006000105240101010705810310001009A6
:104A2400040100020A00000007050202400000071A
:104A34000583024000000000FFFFFFFF00000000AC
:104A4400830000000200000082000000000000005B
:104A54000000000000000000000000000000000052
:104A6400000000008800002000000000000000009A
:104A74000000000000000000000000000000000032
:104A84000000000000000000000000000000000022
:104A94000000000000000000000000000000000012
:104AA4000000000000000000000000000000000002
:104AB40000000000000000000000000000000000F2
:104AC4000000000000000000DD2000006124000060
:104AD400C128000049300000E93E0000B520000074
:040000030000293D93
:00000001FF
